{
  "contractName": "Exhibition",
  "abi": [
    {
      "inputs": [
        {
          "internalType": "address",
          "name": "_creator",
          "type": "address"
        },
        {
          "internalType": "uint256",
          "name": "_price",
          "type": "uint256"
        }
      ],
      "stateMutability": "payable",
      "type": "constructor"
    },
    {
      "anonymous": false,
      "inputs": [
        {
          "indexed": true,
          "internalType": "address",
          "name": "previousOwner",
          "type": "address"
        },
        {
          "indexed": true,
          "internalType": "address",
          "name": "newOwner",
          "type": "address"
        }
      ],
      "name": "OwnershipTransferred",
      "type": "event"
    },
    {
      "anonymous": false,
      "inputs": [
        {
          "indexed": true,
          "internalType": "address",
          "name": "_dest",
          "type": "address"
        },
        {
          "indexed": false,
          "internalType": "uint256",
          "name": "_refundedBalance",
          "type": "uint256"
        }
      ],
      "name": "RefundedToOwner",
      "type": "event"
    },
    {
      "anonymous": false,
      "inputs": [
        {
          "indexed": true,
          "internalType": "address",
          "name": "_depositor",
          "type": "address"
        },
        {
          "indexed": false,
          "internalType": "uint256",
          "name": "_depositedValue",
          "type": "uint256"
        }
      ],
      "name": "bookingCompleted",
      "type": "event"
    },
    {
      "inputs": [],
      "name": "owner",
      "outputs": [
        {
          "internalType": "address",
          "name": "",
          "type": "address"
        }
      ],
      "stateMutability": "view",
      "type": "function"
    },
    {
      "inputs": [],
      "name": "renounceOwnership",
      "outputs": [],
      "stateMutability": "nonpayable",
      "type": "function"
    },
    {
      "inputs": [
        {
          "internalType": "address",
          "name": "newOwner",
          "type": "address"
        }
      ],
      "name": "transferOwnership",
      "outputs": [],
      "stateMutability": "nonpayable",
      "type": "function"
    },
    {
      "inputs": [
        {
          "internalType": "address",
          "name": "",
          "type": "address"
        }
      ],
      "name": "user",
      "outputs": [
        {
          "internalType": "bool",
          "name": "",
          "type": "bool"
        }
      ],
      "stateMutability": "view",
      "type": "function"
    },
    {
      "inputs": [],
      "name": "booking",
      "outputs": [],
      "stateMutability": "payable",
      "type": "function"
    },
    {
      "inputs": [],
      "name": "refundToOwner",
      "outputs": [],
      "stateMutability": "nonpayable",
      "type": "function"
    }
  ],
  "bytecode": "0x60806040526100126100e360201b60201c565b600160006101000a81548173ffffffffffffffffffffffffffffffffffffffff021916908373ffffffffffffffffffffffffffffffffffffffff1602179055506000600255604051610b44380380610b4483398181016040528101906100789190610271565b61009461008961010c60201b60201c565b61011460201b60201c565b81600160006101000a81548173ffffffffffffffffffffffffffffffffffffffff021916908373ffffffffffffffffffffffffffffffffffffffff1602179055508060028190555050506102b1565b60008060009054906101000a900473ffffffffffffffffffffffffffffffffffffffff16905090565b600033905090565b60008060009054906101000a900473ffffffffffffffffffffffffffffffffffffffff169050816000806101000a81548173ffffffffffffffffffffffffffffffffffffffff021916908373ffffffffffffffffffffffffffffffffffffffff1602179055508173ffffffffffffffffffffffffffffffffffffffff168173ffffffffffffffffffffffffffffffffffffffff167f8be0079c531659141344cd1fd0a4f28419497f9722a3daafe3b4186f6b6457e060405160405180910390a35050565b600080fd5b600073ffffffffffffffffffffffffffffffffffffffff82169050919050565b6000610208826101dd565b9050919050565b610218816101fd565b811461022357600080fd5b50565b6000815190506102358161020f565b92915050565b6000819050919050565b61024e8161023b565b811461025957600080fd5b50565b60008151905061026b81610245565b92915050565b60008060408385031215610288576102876101d8565b5b600061029685828601610226565b92505060206102a78582860161025c565b9150509250929050565b610884806102c06000396000f3fe6080604052600436106100555760003560e01c80631909007d1461005a5780633e4e10d614610064578063715018a61461007b57806381e7e20e146100925780638da5cb5b146100cf578063f2fde38b146100fa575b600080fd5b610062610123565b005b34801561007057600080fd5b5061007961020f565b005b34801561008757600080fd5b50610090610319565b005b34801561009e57600080fd5b506100b960048036038101906100b491906105a6565b61032d565b6040516100c691906105ee565b60405180910390f35b3480156100db57600080fd5b506100e461034d565b6040516100f19190610618565b60405180910390f35b34801561010657600080fd5b50610121600480360381019061011c91906105a6565b610376565b005b6002543414610167576040517f08c379a000000000000000000000000000000000000000000000000000000000815260040161015e90610690565b60405180910390fd5b6001600360003373ffffffffffffffffffffffffffffffffffffffff1673ffffffffffffffffffffffffffffffffffffffff16815260200190815260200160002060006101000a81548160ff0219169083151502179055503373ffffffffffffffffffffffffffffffffffffffff167f25265fe429e449076cb7cc79afc7d3cde3709c2744b51909af91b41f5f8d2d803460405161020591906106c9565b60405180910390a2565b6102176103f9565b6000471161025a576040517f08c379a000000000000000000000000000000000000000000000000000000000815260040161025190610730565b60405180910390fd5b6000479050600160009054906101000a900473ffffffffffffffffffffffffffffffffffffffff1673ffffffffffffffffffffffffffffffffffffffff166108fc829081150290604051600060405180830381858888f193505050501580156102c7573d6000803e3d6000fd5b503373ffffffffffffffffffffffffffffffffffffffff167fa9304f0ac97f820b11d5a66f29245fb1e76b1f1f93f46a84a71682e69d095e808260405161030e91906106c9565b60405180910390a250565b6103216103f9565b61032b6000610477565b565b60036020528060005260406000206000915054906101000a900460ff1681565b60008060009054906101000a900473ffffffffffffffffffffffffffffffffffffffff16905090565b61037e6103f9565b600073ffffffffffffffffffffffffffffffffffffffff168173ffffffffffffffffffffffffffffffffffffffff16036103ed576040517f08c379a00000000000000000000000000000000000000000000000000000000081526004016103e4906107c2565b60405180910390fd5b6103f681610477565b50565b61040161053b565b73ffffffffffffffffffffffffffffffffffffffff1661041f61034d565b73ffffffffffffffffffffffffffffffffffffffff1614610475576040517f08c379a000000000000000000000000000000000000000000000000000000000815260040161046c9061082e565b60405180910390fd5b565b60008060009054906101000a900473ffffffffffffffffffffffffffffffffffffffff169050816000806101000a81548173ffffffffffffffffffffffffffffffffffffffff021916908373ffffffffffffffffffffffffffffffffffffffff1602179055508173ffffffffffffffffffffffffffffffffffffffff168173ffffffffffffffffffffffffffffffffffffffff167f8be0079c531659141344cd1fd0a4f28419497f9722a3daafe3b4186f6b6457e060405160405180910390a35050565b600033905090565b600080fd5b600073ffffffffffffffffffffffffffffffffffffffff82169050919050565b600061057382610548565b9050919050565b61058381610568565b811461058e57600080fd5b50565b6000813590506105a08161057a565b92915050565b6000602082840312156105bc576105bb610543565b5b60006105ca84828501610591565b91505092915050565b60008115159050919050565b6105e8816105d3565b82525050565b600060208201905061060360008301846105df565b92915050565b61061281610568565b82525050565b600060208201905061062d6000830184610609565b92915050565b600082825260208201905092915050565b7f707269636520697320646966666572656e740000000000000000000000000000600082015250565b600061067a601283610633565b915061068582610644565b602082019050919050565b600060208201905081810360008301526106a98161066d565b9050919050565b6000819050919050565b6106c3816106b0565b82525050565b60006020820190506106de60008301846106ba565b92915050565b7f62616c616e6365206f662065786869626974696f6e2069732030000000000000600082015250565b600061071a601a83610633565b9150610725826106e4565b602082019050919050565b600060208201905081810360008301526107498161070d565b9050919050565b7f4f776e61626c653a206e6577206f776e657220697320746865207a65726f206160008201527f6464726573730000000000000000000000000000000000000000000000000000602082015250565b60006107ac602683610633565b91506107b782610750565b604082019050919050565b600060208201905081810360008301526107db8161079f565b9050919050565b7f4f776e61626c653a2063616c6c6572206973206e6f7420746865206f776e6572600082015250565b6000610818602083610633565b9150610823826107e2565b602082019050919050565b600060208201905081810360008301526108478161080b565b905091905056fea26469706673582212203a95678006cc99d5473216f8451884e5b5363121baeac9fa48a8576999d5999864736f6c63430008110033",
  "immutableReferences": {},
  "source": "// SPDX-License-Identifier: MIT\npragma solidity >=0.4.22 < 0.9.0;\n\nimport \"../node_modules/@openzeppelin/contracts/access/Ownable.sol\";\nimport \"../node_modules/@openzeppelin/contracts/security/Pausable.sol\";\n\ncontract Exhibition is Ownable{\n\taddress _owner = owner();\n\tuint256 _ticketPrice = 0;\n\tmapping(address => bool) public user;\n\n\tevent RefundedToOwner(address indexed _dest, uint256 _refundedBalance);\n\tevent bookingCompleted(address indexed _depositor, uint256 _depositedValue);\n\n\tconstructor(address _creator, uint256 _price) payable{\n\t\t_owner = _creator;\n\t\t_ticketPrice = _price;\n\t}\n\n\tfunction booking() external payable {\n\t\trequire(msg.value == _ticketPrice, \"price is different\");\n\t\t// require(!user[msg.sender]);\n\n\t\tuser[msg.sender] = true;\n        emit bookingCompleted(msg.sender, msg.value);\n    }\n\n\t// \n\tfunction refundToOwner() external onlyOwner{\n\t\trequire(address(this).balance > 0, \"balance of exhibition is 0\");\n\t\tuint256 refundedBalance = address(this).balance;\n\t\tpayable(_owner).transfer(refundedBalance);\n\t\temit RefundedToOwner(msg.sender, refundedBalance);\n\t}\n\n}",
  "sourcePath": "/Users/shendanny/Documents/CODING/ex_map/front/ex-map/server/util/booking/contracts/Exhibition.sol",
  "compiler": {
    "name": "solc",
    "version": "0.8.17+commit.8df45f5f.Emscripten.clang"
  },
  "schemaVersion": "3.4.10",
  "updatedAt": "2022-12-16T18:39:10.262Z",
  "devdoc": {
    "kind": "dev",
    "methods": {
      "owner()": {
        "details": "Returns the address of the current owner."
      },
      "renounceOwnership()": {
        "details": "Leaves the contract without owner. It will not be possible to call `onlyOwner` functions anymore. Can only be called by the current owner. NOTE: Renouncing ownership will leave the contract without an owner, thereby removing any functionality that is only available to the owner."
      },
      "transferOwnership(address)": {
        "details": "Transfers ownership of the contract to a new account (`newOwner`). Can only be called by the current owner."
      }
    },
    "version": 1
  },
  "userdoc": {
    "kind": "user",
    "methods": {},
    "version": 1
  }
}