{
  "contractName": "ExhibitionFactory",
  "abi": [
    {
      "anonymous": false,
      "inputs": [
        {
          "indexed": true,
          "internalType": "address",
          "name": "_creator",
          "type": "address"
        },
        {
          "indexed": false,
          "internalType": "address",
          "name": "_exhibition",
          "type": "address"
        },
        {
          "indexed": false,
          "internalType": "uint256",
          "name": "_depositedValue",
          "type": "uint256"
        }
      ],
      "name": "ExhibitionCreated",
      "type": "event"
    },
    {
      "anonymous": false,
      "inputs": [
        {
          "indexed": true,
          "internalType": "address",
          "name": "previousOwner",
          "type": "address"
        },
        {
          "indexed": true,
          "internalType": "address",
          "name": "newOwner",
          "type": "address"
        }
      ],
      "name": "OwnershipTransferred",
      "type": "event"
    },
    {
      "anonymous": false,
      "inputs": [
        {
          "indexed": false,
          "internalType": "address",
          "name": "account",
          "type": "address"
        }
      ],
      "name": "Paused",
      "type": "event"
    },
    {
      "anonymous": false,
      "inputs": [
        {
          "indexed": false,
          "internalType": "address",
          "name": "account",
          "type": "address"
        }
      ],
      "name": "Unpaused",
      "type": "event"
    },
    {
      "inputs": [],
      "name": "owner",
      "outputs": [
        {
          "internalType": "address",
          "name": "",
          "type": "address"
        }
      ],
      "stateMutability": "view",
      "type": "function",
      "constant": true
    },
    {
      "inputs": [],
      "name": "paused",
      "outputs": [
        {
          "internalType": "bool",
          "name": "",
          "type": "bool"
        }
      ],
      "stateMutability": "view",
      "type": "function",
      "constant": true
    },
    {
      "inputs": [],
      "name": "renounceOwnership",
      "outputs": [],
      "stateMutability": "nonpayable",
      "type": "function"
    },
    {
      "inputs": [
        {
          "internalType": "address",
          "name": "newOwner",
          "type": "address"
        }
      ],
      "name": "transferOwnership",
      "outputs": [],
      "stateMutability": "nonpayable",
      "type": "function"
    },
    {
      "inputs": [
        {
          "internalType": "uint256",
          "name": "_minimum",
          "type": "uint256"
        }
      ],
      "name": "createExhibition",
      "outputs": [],
      "stateMutability": "payable",
      "type": "function",
      "payable": true
    }
  ],
  "bytecode": "0x608060405234801561001057600080fd5b5061002d61002261004c60201b60201c565b61005460201b60201c565b60008060146101000a81548160ff021916908315150217905550610118565b600033905090565b60008060009054906101000a900473ffffffffffffffffffffffffffffffffffffffff169050816000806101000a81548173ffffffffffffffffffffffffffffffffffffffff021916908373ffffffffffffffffffffffffffffffffffffffff1602179055508173ffffffffffffffffffffffffffffffffffffffff168173ffffffffffffffffffffffffffffffffffffffff167f8be0079c531659141344cd1fd0a4f28419497f9722a3daafe3b4186f6b6457e060405160405180910390a35050565b6111c6806101276000396000f3fe608060405260043610620000505760003560e01c80635c975abb1462000055578063715018a6146200008557806386f46c53146200009f5780638da5cb5b14620000bf578063f2fde38b14620000ef575b600080fd5b3480156200006257600080fd5b506200006d6200011d565b6040516200007c919062000410565b60405180910390f35b3480156200009257600080fd5b506200009d62000133565b005b620000bd6004803603810190620000b791906200046d565b6200014b565b005b348015620000cc57600080fd5b50620000d7620001e1565b604051620000e69190620004e4565b60405180910390f35b348015620000fc57600080fd5b506200011b600480360381019062000115919062000532565b6200020a565b005b60008060149054906101000a900460ff16905090565b6200013d62000294565b62000149600062000319565b565b60003433836040516200015e90620003e5565b6200016b92919062000575565b6040518091039082f090508015801562000189573d6000803e3d6000fd5b5090503373ffffffffffffffffffffffffffffffffffffffff167e044e15699b8682e5797ffcfd4443f8fc91f5d7ef35ce25794ef4e714e5a94e8234604051620001d592919062000575565b60405180910390a25050565b60008060009054906101000a900473ffffffffffffffffffffffffffffffffffffffff16905090565b6200021462000294565b600073ffffffffffffffffffffffffffffffffffffffff168173ffffffffffffffffffffffffffffffffffffffff160362000286576040517f08c379a00000000000000000000000000000000000000000000000000000000081526004016200027d9062000629565b60405180910390fd5b620002918162000319565b50565b6200029e620003dd565b73ffffffffffffffffffffffffffffffffffffffff16620002be620001e1565b73ffffffffffffffffffffffffffffffffffffffff161462000317576040517f08c379a00000000000000000000000000000000000000000000000000000000081526004016200030e906200069b565b60405180910390fd5b565b60008060009054906101000a900473ffffffffffffffffffffffffffffffffffffffff169050816000806101000a81548173ffffffffffffffffffffffffffffffffffffffff021916908373ffffffffffffffffffffffffffffffffffffffff1602179055508173ffffffffffffffffffffffffffffffffffffffff168173ffffffffffffffffffffffffffffffffffffffff167f8be0079c531659141344cd1fd0a4f28419497f9722a3daafe3b4186f6b6457e060405160405180910390a35050565b600033905090565b610ad380620006be83390190565b60008115159050919050565b6200040a81620003f3565b82525050565b6000602082019050620004276000830184620003ff565b92915050565b600080fd5b6000819050919050565b620004478162000432565b81146200045357600080fd5b50565b60008135905062000467816200043c565b92915050565b6000602082840312156200048657620004856200042d565b5b6000620004968482850162000456565b91505092915050565b600073ffffffffffffffffffffffffffffffffffffffff82169050919050565b6000620004cc826200049f565b9050919050565b620004de81620004bf565b82525050565b6000602082019050620004fb6000830184620004d3565b92915050565b6200050c81620004bf565b81146200051857600080fd5b50565b6000813590506200052c8162000501565b92915050565b6000602082840312156200054b576200054a6200042d565b5b60006200055b848285016200051b565b91505092915050565b6200056f8162000432565b82525050565b60006040820190506200058c6000830185620004d3565b6200059b602083018462000564565b9392505050565b600082825260208201905092915050565b7f4f776e61626c653a206e6577206f776e657220697320746865207a65726f206160008201527f6464726573730000000000000000000000000000000000000000000000000000602082015250565b600062000611602683620005a2565b91506200061e82620005b3565b604082019050919050565b60006020820190508181036000830152620006448162000602565b9050919050565b7f4f776e61626c653a2063616c6c6572206973206e6f7420746865206f776e6572600082015250565b600062000683602083620005a2565b915062000690826200064b565b602082019050919050565b60006020820190508181036000830152620006b68162000674565b905091905056fe60806040526100126100e360201b60201c565b600160006101000a81548173ffffffffffffffffffffffffffffffffffffffff021916908373ffffffffffffffffffffffffffffffffffffffff1602179055506000600255604051610ad3380380610ad383398181016040528101906100789190610271565b61009461008961010c60201b60201c565b61011460201b60201c565b81600160006101000a81548173ffffffffffffffffffffffffffffffffffffffff021916908373ffffffffffffffffffffffffffffffffffffffff1602179055508060028190555050506102b1565b60008060009054906101000a900473ffffffffffffffffffffffffffffffffffffffff16905090565b600033905090565b60008060009054906101000a900473ffffffffffffffffffffffffffffffffffffffff169050816000806101000a81548173ffffffffffffffffffffffffffffffffffffffff021916908373ffffffffffffffffffffffffffffffffffffffff1602179055508173ffffffffffffffffffffffffffffffffffffffff168173ffffffffffffffffffffffffffffffffffffffff167f8be0079c531659141344cd1fd0a4f28419497f9722a3daafe3b4186f6b6457e060405160405180910390a35050565b600080fd5b600073ffffffffffffffffffffffffffffffffffffffff82169050919050565b6000610208826101dd565b9050919050565b610218816101fd565b811461022357600080fd5b50565b6000815190506102358161020f565b92915050565b6000819050919050565b61024e8161023b565b811461025957600080fd5b50565b60008151905061026b81610245565b92915050565b60008060408385031215610288576102876101d8565b5b600061029685828601610226565b92505060206102a78582860161025c565b9150509250929050565b610813806102c06000396000f3fe6080604052600436106100555760003560e01c80631909007d1461005a5780633e4e10d614610064578063715018a61461007b57806381e7e20e146100925780638da5cb5b146100cf578063f2fde38b146100fa575b600080fd5b610062610123565b005b34801561007057600080fd5b50610079610230565b005b34801561008757600080fd5b5061009061033a565b005b34801561009e57600080fd5b506100b960048036038101906100b491906105c7565b61034e565b6040516100c6919061060f565b60405180910390f35b3480156100db57600080fd5b506100e461036e565b6040516100f19190610639565b60405180910390f35b34801561010657600080fd5b50610121600480360381019061011c91906105c7565b610397565b005b600254341461013157600080fd5b600360003373ffffffffffffffffffffffffffffffffffffffff1673ffffffffffffffffffffffffffffffffffffffff16815260200190815260200160002060009054906101000a900460ff161561018857600080fd5b6001600360003373ffffffffffffffffffffffffffffffffffffffff1673ffffffffffffffffffffffffffffffffffffffff16815260200190815260200160002060006101000a81548160ff0219169083151502179055503373ffffffffffffffffffffffffffffffffffffffff167f2da466a7b24304f47e87fa2e1e5a81b9831ce54fec19055ce277ca2f39ba42c434604051610226919061066d565b60405180910390a2565b61023861041a565b6000471161027b576040517f08c379a0000000000000000000000000000000000000000000000000000000008152600401610272906106bf565b60405180910390fd5b6000479050600160009054906101000a900473ffffffffffffffffffffffffffffffffffffffff1673ffffffffffffffffffffffffffffffffffffffff166108fc829081150290604051600060405180830381858888f193505050501580156102e8573d6000803e3d6000fd5b503373ffffffffffffffffffffffffffffffffffffffff167fa9304f0ac97f820b11d5a66f29245fb1e76b1f1f93f46a84a71682e69d095e808260405161032f919061066d565b60405180910390a250565b61034261041a565b61034c6000610498565b565b60036020528060005260406000206000915054906101000a900460ff1681565b60008060009054906101000a900473ffffffffffffffffffffffffffffffffffffffff16905090565b61039f61041a565b600073ffffffffffffffffffffffffffffffffffffffff168173ffffffffffffffffffffffffffffffffffffffff160361040e576040517f08c379a000000000000000000000000000000000000000000000000000000000815260040161040590610751565b60405180910390fd5b61041781610498565b50565b61042261055c565b73ffffffffffffffffffffffffffffffffffffffff1661044061036e565b73ffffffffffffffffffffffffffffffffffffffff1614610496576040517f08c379a000000000000000000000000000000000000000000000000000000000815260040161048d906107bd565b60405180910390fd5b565b60008060009054906101000a900473ffffffffffffffffffffffffffffffffffffffff169050816000806101000a81548173ffffffffffffffffffffffffffffffffffffffff021916908373ffffffffffffffffffffffffffffffffffffffff1602179055508173ffffffffffffffffffffffffffffffffffffffff168173ffffffffffffffffffffffffffffffffffffffff167f8be0079c531659141344cd1fd0a4f28419497f9722a3daafe3b4186f6b6457e060405160405180910390a35050565b600033905090565b600080fd5b600073ffffffffffffffffffffffffffffffffffffffff82169050919050565b600061059482610569565b9050919050565b6105a481610589565b81146105af57600080fd5b50565b6000813590506105c18161059b565b92915050565b6000602082840312156105dd576105dc610564565b5b60006105eb848285016105b2565b91505092915050565b60008115159050919050565b610609816105f4565b82525050565b60006020820190506106246000830184610600565b92915050565b61063381610589565b82525050565b600060208201905061064e600083018461062a565b92915050565b6000819050919050565b61066781610654565b82525050565b6000602082019050610682600083018461065e565b92915050565b600082825260208201905092915050565b50565b60006106a9600083610688565b91506106b482610699565b600082019050919050565b600060208201905081810360008301526106d88161069c565b9050919050565b7f4f776e61626c653a206e6577206f776e657220697320746865207a65726f206160008201527f6464726573730000000000000000000000000000000000000000000000000000602082015250565b600061073b602683610688565b9150610746826106df565b604082019050919050565b6000602082019050818103600083015261076a8161072e565b9050919050565b7f4f776e61626c653a2063616c6c6572206973206e6f7420746865206f776e6572600082015250565b60006107a7602083610688565b91506107b282610771565b602082019050919050565b600060208201905081810360008301526107d68161079a565b905091905056fea26469706673582212206ab01c365ba6ba6c63c025e1f1d040881e9a500311b9e41f28ce84ca5201b58564736f6c63430008110033a2646970667358221220db0f8aa0576cd70b34f77048188b3eefdd38f6b9930a431eafff8d92e0963dbd64736f6c63430008110033",
  "immutableReferences": {},
  "source": "// SPDX-License-Identifier: MIT\npragma solidity >=0.4.22 < 0.9.0;\n\nimport \"./Exhibition.sol\";\nimport \"../node_modules/@openzeppelin/contracts/access/Ownable.sol\";\nimport \"../node_modules/@openzeppelin/contracts/security/Pausable.sol\";\n\ncontract ExhibitionFactory is Ownable, Pausable {\n\n\tevent ExhibitionCreated(address indexed _creator, address _exhibition, uint256 _depositedValue);\n\n\t// \n\tfunction createExhibition(uint256 _minimum) external payable {\n\t\tExhibition exhibition = new Exhibition{value: msg.value}(msg.sender, _minimum);\n\t\temit ExhibitionCreated(msg.sender, address(exhibition), msg.value);\n\t}\n\n}",
  "sourcePath": "/Users/shendanny/Documents/CODING/ex_map/front/ex-map/server/util/booking/contracts/ExhibitionFactory.sol",
  "compiler": {
    "name": "solc",
    "version": "0.8.17+commit.8df45f5f.Emscripten.clang"
  },
  "schemaVersion": "3.4.10",
  "updatedAt": "2022-11-22T05:58:32.066Z",
  "networkType": "ethereum",
  "devdoc": {
    "kind": "dev",
    "methods": {
      "owner()": {
        "details": "Returns the address of the current owner."
      },
      "paused()": {
        "details": "Returns true if the contract is paused, and false otherwise."
      },
      "renounceOwnership()": {
        "details": "Leaves the contract without owner. It will not be possible to call `onlyOwner` functions anymore. Can only be called by the current owner. NOTE: Renouncing ownership will leave the contract without an owner, thereby removing any functionality that is only available to the owner."
      },
      "transferOwnership(address)": {
        "details": "Transfers ownership of the contract to a new account (`newOwner`). Can only be called by the current owner."
      }
    },
    "version": 1
  },
  "userdoc": {
    "kind": "user",
    "methods": {},
    "version": 1
  }
}